:100000000C9471010C9499010C9499010C94990130
:100010000C9499010C9499010C9499010C949901F8
:100020000C9499010C9499010C9499010C949901E8
:100030000C9499010C9499010C9499010C949901D8
:100040000C94F6310C9499010C94F5040C94310540
:100050000C9499010C9499010C9499010C949901B8
:100060000C9499010C949901084AD73B3BCE016E40
:1000700084BCBFFDC12F3D6C74319ABD56833DDAFF
:100080003D00C77F11BED9E4BB4C3E916BAAAABE0E
:10009000000000803F05A84CCDB2D44EB93836A937
:1000A000020C50B9918688083CA6AAAA2ABE000074
:1000B00000803F0664EC1B3C04BC163E3BE5B93CAB
:1000C000C93C37C29E5A3D660498083EEA69AAAA0E
:1000D0003E000000803F2020202020202020004ED5
:1000E0006F206D61762064617461210020202020E2
:1000F0002020202020202020207C202020202020A4
:10010000202020202020207CC620202020202020ED
:100110002020202020C57C202020202020202020DE
:10012000202020207C202020202020202020202073
:1001300020207C0013001400120011001820202041
:100140002020001820209091200016202020202020
:10015000004D696E696D4F53442D4578747261206E
:10016000322E347C6D6F646465642062792064692A
:1001700073706574746F20616E64206C6F74686155
:10018000720000407A10F35A00A0724E1809001055
:10019000A5D4E80000E87648170000E40B540200FC
:1001A00000CA9A3B000000E1F50500008096980027
:1001B000000040420F000000A08601000000102750
:1001C00000000000E80300000000640000000000E0
:1001D0000A00000000000100000000002C76D88812
:1001E000DC674F0823DFC1DFAE59E1B1B796E5E325
:1001F000E453C63AE651997696E8E6C28426EB893E
:100200008C9B62ED407C6FFCEFBC9C9F40F2BAA5DA
:100210006FA5F490055A2AF75C936B6CF9676DC172
:100220001BFCE0E40D47FEF520E6B500D0ED902E76
:100230000300943577050080841E080000204E0AD4
:10024000000000C80C333333330F986E1283114112
:10025000EF8D2114893BE65516CFFEE6DB18D184DD
:100260004B381BF77C1D901DA4BBE4242032847204
:100270005E228100C9F124ECA1E53D276E616E008C
:10028000696E660000000000240027002A000000BC
:100290000000250028002B0000000000230026009D
:1002A00029000404040404040404020202020202F9
:1002B000030303030303010204081020408001022A
:1002C00004081020010204081020000000070002AA
:1002D00001000003040600000000000000007F058C
:1002E000E42911241FBECFEFD8E0DEBFCDBF15E05B
:1002F000A0E0B1E0E8ECFFE602C005900D92AA365E
:10030000B107D9F717E0AAE6B5E001C01D92AC3AF3
:10031000B107E1F712E0C2EED2E004C02297FE017D
:100320000E94DE37CE3DD107C9F70E947D330C9481
:10033000E2370C940000283008F027E03327DA0178
:10034000990F311D87FD916000966105710539F4A3
:1003500032602E5F3D9330E32A95E1F708959F3F89
:1003600030F080387105610509F03C5F3C5F3D93DA
:10037000913008F08068911DDF93CF931F930F9306
:10038000FF92EF92192F987F9695E92F9695969563
:10039000E90FFF27E452FE4F99273327EE24FF246D
:1003A000A701E70105900894079428F4360FE71E8B
:1003B000F81E491F511D660F771F881F991F06944D
:1003C000A1F70590079428F4E70EF81E491F561F61
:1003D000C11D770F881F991F661F0694A1F705900E
:1003E000079428F4F80E491F561FC71FD11D880F08
:1003F000991F661F771F0694A1F70590079420F4B4
:10040000490F561FC71FD81F990F661F771F881FD8
:100410000694A9F784911095177041F0D695C79569
:1004200057954795F794E7941A95C1F7E2E8F1E0FC
:1004300068941590159135916591959105907FE29D
:100440007395E118F10A430B560BC90BD009C0F79D
:10045000E10CF11E431F561FC91FD01D7EF47033DF
:1004600011F48A95E6CFE894015030F0080F0AF4B1
:100470000027021708F4202F2395022F7A3328F043
:1004800079E37D932A95E9F710C07D932A9589F643
:10049000069497956795379517951794E118F10A83
:1004A000430B560BC90BD00998F023957E91739599
:1004B0007A3308F070E37C932013B8F77E91706173
:1004C0007D9330F0839571E37D9370E32A95E1F796
:1004D0001124EF90FF900F911F91CF91DF919927F9
:1004E00087FD90950895FA01AA27283051F120310F
:1004F00081F1E8946F936E7F6E5F7F4F8F4F9F4FB8
:10050000AF4FB1E03ED0B4E03CD0670F781F891FF9
:100510009A1FA11D680F791F8A1F911DA11D6A0FC7
:10052000711D811D911DA11D20D009F468943F917A
:100530002AE0269F11243019305D3193DEF6CF0179
:100540000895462F4770405D4193B3E00FD0C9F73F
:10055000F6CF462F4F70405D4A3318F0495D31FDAC
:100560004052419302D0A9F7EACFB4E0A6959795FF
:10057000879577956795BA95C9F7009761057105D5
:1005800008959B01AC010A2E06945795479537951F
:100590002795BA95C9F7620F731F841F951FA01D79
:1005A0000895FC010590615070400110D8F78095C6
:1005B00090958E0F9F1F0895FC016150704001902F
:1005C0000110D8F7809590958E0F9F1F0895FC011C
:1005D0001382128288EE93E0A0E0B0E084839583DA
:1005E000A683B7838FE194E0918380830895FC0113
:1005F0008089803419F421E030E002C020E030E04E
:10060000C9010895FC01818990E00895FC01648787
:10061000458766874787089580E090E0089580E0E9
:1006200090E0089580E090E008950895EF92FF92A1
:100630001F93CF93DF93162F7A0186E060E00E942C
:1006400029338AE897E060E00E94C8298AE897E0A9
:1006500060E00E94C8298AE897E069E00E94C82902
:100660008AE897E0612F0E94C829C0E0D0E0F70136
:10067000EC0FFD1F10818AE897E06AE00E94C8290C
:100680008AE897E06C2F0E94C8298AE897E06BE01F
:100690000E94C8298AE897E0612F0E94C829219604
:1006A000C633D10521F78AE897E068E00E94C8299F
:1006B0008AE897E060EA0E94C8298AE897E060EA41
:1006C0000E94C82985FDF9CF8AE897E060E00E9482
:1006D000C8298AE897E06CE00E94C82986E061E0BA
:1006E0000E942933DF91CF911F91FF90EF900895E1
:1006F0001F93CF93DF93EC01162F86E060E00E94FA
:1007000029338AE897E060E00E94C829112319F094
:10071000113059F404C08AE897E0688904C06889F8
:100720006C618AE897E00E94C82986E061E00E9437
:100730002933DF91CF911F910895EF92FF920F938C
:100740001F938EE1489F70011124E60EF11C86E094
:1007500060E00E9429330AE817E0C80165E00E94C2
:10076000C829C8016F2D0E94C829C80166E00E94EF
:10077000C829C8016E2D0E94C8291F910F91FF90B2
:10078000EF900895EF92FF920F931F937C010AE878
:1007900017E0C80167E00E94C829C8016FEF0E94F6
:1007A000C82986E061E00E942933F70187858F5FC1
:1007B00087871F910F91FF90EF900895EF92FF921E
:1007C0000F931F93FC01E7848EE1E89E70011124D2
:1007D0008685E80EF11C86E060E00E9429330AE875
:1007E00017E0C80164E00E94C829C80163E00E94C4
:1007F000C829C80165E00E94C829C8016F2D0E9460
:10080000C829C80166E00E94C829C8016E2D0E944F
:10081000C8291F910F91FF90EF9008951F93CF93D8
:10082000DF93EC01162F6C3731F40E94C203CE0126
:100830000E94DE030AC08AE897E067E00E94C829A8
:100840008AE897E0612F0E94C82981E090E0DF915B
:10085000CF911F9108950F931F9386E060E00E944F
:1008600029330AE817E0C80164E00E94C829C801DA
:1008700064E00E94C82986E061E00E9429331F914C
:100880000F9108951F938CE997E066E973E00E9449
:10089000AE30882361F0813011F412E009C082305B
:1008A00011F411E005C0833011F410E001C013E031
:1008B00010926B0510926A0517C060916A057091DD
:1008C0006B05605F8AE897E00E94C8298AE897E094
:1008D000612F0E94C82980916A0590916B0501964D
:1008E00090936B0580936A0580916A0590916B05E2
:1008F00040971CF31F910895CF93DF93EC0186E09E
:1009000060E00E9429338AE897E060EA0E94C829E3
:100910008AE897E06FEF0E94C82980FF05C080E455
:10092000888B88E0898B13C08CE997E060E973E0DD
:100930000E94AE30882319F4188A86E003C080E450
:10094000888B88E0898B86E060E00E942933DF9104
:10095000CF910895CF92DF92FF920F931F936C0176
:1009600086E061E00E94EA3282E060E00E94EA32C2
:1009700082E061E00E942933C6010E947C0486E087
:1009800060E00E9429330AE817E0C8016CEE0E947B
:10099000C829C8016FEF0E94C829F82EC80160E07D
:1009A0000E94C829F60160896260C8010E94C829B6
:1009B00062E370E080E090E00E944C32C8016CE697
:1009C0000E94C829FFEEFF22C8016F2D0E94C8298E
:1009D000C6010E944204C60161E00E9478031F9193
:1009E0000F91FF90DF90CF9008951F920F920FB656
:1009F0000F9211242F933F934F938F939F93EF93D5
:100A0000FF934091C60020918B0730918C072F5F98
:100A10003F4F80918F079091900728233923809131
:100A20008D0790918E072817390779F080918B07F1
:100A300090918C07E0919107F0919207E80FF91FD0
:100A4000408330938C0720938B07FF91EF919F9108
:100A50008F914F913F912F910F900FBE0F901F904C
:100A600018951F920F920FB60F9211242F933F9358
:100A70008F939F93EF93FF93209195073091960763
:100A8000809193079091940728173907E9F0809196
:100A9000950790919607E0919907F0919A07E80FD2
:100AA000F91F80818093C6008091950790919607E9
:100AB0000196209197073091980782239323909372
:100AC00096078093950710C0209193073091940763
:100AD00080919507909196072817390729F48091FE
:100AE000C1008F7D8093C100FF91EF919F918F9105
:100AF0003F912F910F900FBE0F901F9018958F92DE
:100B0000AF92CF92EF92FF920F931F938AEE95E0F0
:100B100060E045EC50E024EC30E000EC10E0F1EC5B
:100B2000EF2EF12CCC24C394E8E9AE2E70E2872E90
:100B30000E941E2A87E096E00E94E7021F910F9113
:100B4000FF90EF90CF90AF908F900895809119060D
:100B50008130C1F40E943E3268517C4F8F4F9F4FCD
:100B600060931A0670931B0680931C0690931D06D3
:100B70001092190690E080911E06882309F491E0F6
:100B800090931E060E943E3220911A0630911B0659
:100B900040911C0650911D06261737074807590734
:100BA00018F481E0809319060895AF92BF92CF9216
:100BB000DF92EF92FF920F931F9380917E0688231E
:100BC00099F560918C0670918D0680918E069091BA
:100BD0008F0620E030E040EA50E40E9447361816C5
:100BE0001CF5809178068B30F8F081E080937E06CA
:100BF00080E090E0A0E0B0E08093B3069093B4066C
:100C0000A093B506B093B6060E943E3228EE33E0BC
:100C100040E050E00E949F3720936F0630937006AB
:100C20004093710650937206A0908806B090890692
:100C3000C0908A06D0908B06C601B50120E030E056
:100C400040E85FE30E944736181694F5E090B3063B
:100C5000F090B4060091B5061091B6060E943E329F
:100C600020917E0730917F07409180075091810746
:100C7000621B730B840B950B0E941D359B01AC010D
:100C8000C601B5010E94523620E030E04AE754E444
:100C90000E9484349B01AC01C801B7010E94B733A4
:100CA0006093B3067093B4068093B5069093B6062E
:100CB000A0907406B0907506C0907606D090770626
:100CC00060919C0670919D06882777FD8095982FEE
:100CD0000E941F3520E030E040E251E40E9452368D
:100CE0007B018C010E943E3220917E0730917F076C
:100CF0004091800750918107621B730B840B950B09
:100D00000E941D359B01AC01C801B7010E945236FB
:100D100020E03AEB4BE55AE40E9484349B01AC019D
:100D2000C601B5010E94B7336093740670937506CF
:100D300080937606909377060E943E3260937E07FA
:100D400070937F07809380079093810780917E0640
:100D5000813009F098C060916B0670916C068091AB
:100D60006D0690916E060E941F357B018C012091CB
:100D7000C1063091C2064091C3065091C4060E943C
:100D80004736181644F4E092C106F092C20600936A
:100D9000C3061093C406E0907906F0907A0600919D
:100DA0007B0610917C06C801B7012091C5063091E1
:100DB000C6064091C7065091C8060E9447361816CD
:100DC00044F4E092C506F092C6060093C70610935D
:100DD000C806E0908806F090890600918A06109176
:100DE0008B06C801B7012091C9063091CA0640910F
:100DF000CB065091CC060E944736181644F4E09278
:100E0000C906F092CA060093CB061093CC06E09078
:100E10008C06F0908D0600918E0610918F06C80109
:100E2000B7012091CD063091CE064091CF0650916A
:100E3000D0060E944736181644F4E092CD06F09290
:100E4000CE060093CF061093D006E0903506F090C2
:100E500036060091370610913806C801B701209177
:100E6000D1063091D2064091D3065091D4060E940B
:100E70004736181644F4E092D106F092D206009359
:100E8000D3061093D4061F910F91FF90EF90DF903F
:100E9000CF90BF90AF9008958CE997E06AE773E038
:100EA0000E94AE308823B1F586E696E6A6E6B0E469
:100EB00080931F0690932006A0932106B0932206EC
:100EC00080E090E0A0E8BFE380932306909324069F
:100ED000A0932506B093260680E1809327068CE038
:100EE000809328068AEB90E090932A068093290647
:100EF0008AE08093080410922C0610922B068BE156
:100F000080932D0688EE93E090932F0680932E0613
:100F10008AE137C082E598EBAEE0B0E480931F062B
:100F200090932006A0932106B093220685E89BEEBD
:100F3000A1E5B0E48093230690932406A0932506B0
:100F4000B093260689E18093270686E680932806DB
:100F50008BEB90E090932A068093290682E18093A0
:100F6000080480E09DE790932C0680932B068CE18B
:100F700080932D0680EA94E190932F0680932E06AD
:100F80008EE1809330060895CF93DF938CE997E04C
:100F90006CE773E00E94AE3080937F068CE997E0A7
:100FA0006EE773E00E94AE3080937D068CE997E097
:100FB00060E873E00E94AE30809380068CE997E091
:100FC0006EE873E00E94AE308093DE068CE997E015
:100FD00066E773E00E94AE30809387068CE997E065
:100FE0006AE873E00E94AE308093DF068CE997E0F8
:100FF00064E873E00E94AE308093A7068CE997E026
:1010000066E873E00E94AE308093A6068CE997E014
:101010006CE873E00E94AE30809383068CE997E021
:1010200062E973E00E94AE30809381068CE997E01C
:1010300064E973E00E94AE3080938206C0E0D0E0A5
:10104000BE0168567C4F8CE997E00E94AE30FE01ED
:10105000E052F94F8083882321F02196C830D105D2
:1010600079F7C052D94F1982DF91CF910895BC0111
:101070008CE997E00E94AE3008956091430670912C
:101080004406809145069091460620E030E040EC11
:1010900051E40E94523620E030E044EB53E40E94D9
:1010A00084340E94B5360E94EC349B0123503040BA
:1010B00037FF03C09B012B5E3F4FAFE4B6E0F90161
:1010C000E35DFA4F80818C932F5F3F4F28313105CC
:1010D00014F020E030E0119686E0AA35B80779F7E1
:1010E0001092560608952F923F924F925F926F9200
:1010F0007F928F929F92AF92BF92CF92DF92EF92A8
:10110000FF920F931F93DF93CF9300D000D000D0B6
:10111000CDB7DEB7182F662E2091310630913206FA
:101120002A35310530F0C9018D549F4F893591051D
:10113000E8F437FF02C02D543F4FC90137FF03C009
:10114000909581959F4F8A3191053CF0B9ED8B2E9A
:10115000912CA8EF2A2E312C1DC00A975CF1F0EDDE
:101160008F2E912CE3EF2E2E312C20C02B35310504
:1011700014F0235B3040C90137FF03C0909581957F
:101180009F4F8A31910554F07BEE872E912C6BEFA7
:10119000262E312C57E0A52EB12C15C00A9754F0FD
:1011A00042EE842E912C35EF232E312C28E0A22EF6
:1011B000B12C09C096EC892E912C8DEC282E312C67
:1011C00009E0A02EB12C6091330670913406882777
:1011D00077FD8095982F0E941F3527EA32E94BE270
:1011E0005CEB0E9452360E94263720E030E040EA55
:1011F00050E40E94523620E030E040E951E40E9481
:1012000052360E94B53620E030E044E352E40E94BA
:10121000B7330E94EC34712EBEEBCB2EBFEFDB2E2A
:101220009B01442737FD4095542F29833A834B83F4
:101230005C83A7E04A2EA6E05A2E4AEF5FEF240E09
:10124000351E6091310670913206882777FD8095B2
:10125000982F0E941F3525E33AEF4EE85CE30E9489
:1012600052360E9426377B018C01B601882777FD14
:101270008095982F0E941F359B01AC01C801B701D2
:101280000E9452367B018C0169817A818B819C811D
:101290000E941F359B01AC01C801B7010E94B73302
:1012A0000E94EC349B01CB0101978A35910508F02F
:1012B00071C062E170E00E948C378B012F5F3F4F5D
:1012C000AEEEBFEF6A9FC0016B9F900D7A9F900DAD
:1012D0001124820F931F62E070E00E948C376D83AF
:1012E0007E83E62CE01A4E2D4C5F87E096E0672D5A
:1012F0000E949D0300D000D000D0EDB7FEB731961C
:10130000ADB7BEB712965C924E92119720E031E0D5
:10131000338322838D819E81880D991D95838483DB
:101320000E94FD294DB75EB74A5F5F4F0FB6F89434
:101330005EBF0FBE4DBF8D819E818A159B0554F106
:10134000043011053CF593E0E90EC201672D4E2DE6
:101350000E949D0300D000D000D0EDB7FEB73196BB
:10136000ADB7BEB712965C924E92119720E031E075
:10137000338322834D815E81420D531D5583448307
:101380000E94FD298DB79EB706960FB6F8949EBFB2
:101390000FBE8DBFACE0B0E0CA0EDB1E7394BEE49E
:1013A000CB16D10409F04DCF26960FB6F894DEBFC8
:1013B0000FBECDBFCF91DF911F910F91FF90EF90A6
:1013C000DF90CF90BF90AF909F908F907F906F9065
:1013D0005F904F903F902F9008959F92AF92BF9251
:1013E000CF92DF92EF92FF920F931F93882309F41D
:1013F00081E0880F8257613009F06FC0A0901F060E
:10140000B0902006C0902106D0902206E82EFF243E
:10141000E7FCF094909027064DB75EB746515040D8
:101420000FB6F8945EBF0FBE4DBF0DB71EB70F5F6E
:101430001F4F87E096E0ADB7BEB712969C938E9390
:10144000119783E091E0F801938382838DE190E02E
:1014500095838483C601B501209135063091360607
:1014600040913706509138060E945236D8011696A0
:101470006D937D938D939C9319971A969C921A97CE
:101480001B961C921B971D96FC92EE921C9708943B
:10149000E11CF11C1F96FC92EE921E97C601B5014D
:1014A0002091390630913A0640913B0650913C0616
:1014B0000E945236F801608B718B828B938B948AD9
:1014C000158A0E94FD294DB75EB74A5E5F4F0FB681
:1014D000F8945EBF0FBE4DBF57C0282F332727FD9E
:1014E000309587E096E0623049F5ADB7BEB71C97FE
:1014F0000FB6F894BEBF0FBEADBFEDB7FEB73196C5
:1015000012969C938E93119789E191E09383828345
:10151000358324832F5F3F4F3783268380913D0699
:1015200090913E069187808785E090E0938782873F
:101530000E94FD29EDB7FEB73C9621C04DB75EB7BE
:10154000485050400FB6F8945EBF0FBE4DBFEDB788
:10155000FEB73196ADB7BEB712969C938E93119796
:1015600083E291E093838283358324832F5F3F4F0F
:10157000378326830E94FD29EDB7FEB738960FB654
:10158000F894FEBF0FBEEDBF1F910F91FF90EF903B
:10159000DF90CF90BF90AF909F9008950F931F93CF
:1015A000282F462F87E096E0622F0E94060387E0EF
:1015B00096E00E94DE0380913F06882319F428E21A
:1015C00031E038C0813019F42DE231E033C082308F
:1015D00019F422E331E02EC027E331E0833019F41F
:1015E00028E331E027C0843019F42DE331E022C034
:1015F000853019F422E431E01DC0863019F427E467
:1016000031E018C0873019F42CE431E013C08A307F
:1016100019F421E531E00EC08B3019F426E531E0F4
:1016200009C08C3019F42BE531E004C08F3011F47F
:1016300020E631E000D000D000D0EDB7FEB7319603
:1016400007E016E0ADB7BEB712961C930E93119744
:1016500085E691E093838283358324830E94FD296C
:101660008DB79EB706960FB6F8949EBF0FBE8DBF7E
:10167000C8010E94C2031F910F9108950F931F93F9
:10168000282F462F07E016E0C801622F0E940603AC
:10169000C8010E94DE038091400660E00E94ED09CF
:1016A000C8010E94C2031F910F9108950F931F93C9
:1016B000282F462F07E016E0C801622F0E9406037C
:1016C000C8010E94DE038DB79EB70A970FB6F89443
:1016D0009EBF0FBE8DBFEDB7FEB73196ADB7BEB79B
:1016E00012961C930E93119788E691E09383828360
:1016F00083EC90E0958384838FE496E097838683E0
:1017000087E890E0918780870E94FD298DB79EB77A
:101710000A960FB6F8949EBF0FBE8DBFC8010E94F7
:10172000C2031F910F9108950F931F93282F462FE7
:1017300007E016E0C801622F0E940603C8010E945C
:10174000DE038DB79EB70A970FB6F8949EBF0FBE03
:101750008DBFEDB7FEB73196ADB7BEB712961C93ED
:101760000E9311978FE691E09383828380914306D5
:1017700090914406A0914506B091460684839583D6
:10178000A683B78385E090E0918780870E94FD293A
:101790008DB79EB70A960FB6F8949EBF0FBE8DBF49
:1017A000C8010E94C2031F910F9108950F931F93C8
:1017B000282F462F07E016E0C801622F0E9406037B
:1017C000C8010E94DE038DB79EB70C970FB6F89440
:1017D0009EBF0FBE8DBFEDB7FEB73196ADB7BEB79A
:1017E00012961C930E93119787E791E0938382835F
:1017F00080915B0690915C06A0915D06B0915E06BB
:1018000084839583A683B78380915F069091600659
:10181000A0916106B091620680879187A287B38705
:101820000E94FD298DB79EB70C960FB6F8949EBF07
:101830000FBE8DBFC8010E94C2031F910F91089572
:101840000F931F93282F462F87E096E0622F0E9468
:10185000060387E096E00E94DE03809163068230F3
:1018600011F42FE105C0833011F42FE001C02AE20A
:101870008091640690916506883C910520F08091E6
:101880001E06811120E28DB79EB708970FB6F89417
:101890009EBF0FBE8DBFEDB7FEB7319607E016E0D5
:1018A000ADB7BEB712961C930E93119785E891E0E1
:1018B00093838283248315828091660686831782B0
:1018C0000E94FD298DB79EB708960FB6F8949EBF6B
:1018D0000FBE8DBFC8010E94C2031F910F910895D2
:1018E0000F931F93282F462F07E016E0C801622FA1
:1018F0000E940603C8010E94DE038DB79EB70A97B7
:101900000FB6F8949EBF0FBE8DBFEDB7FEB73196F0
:10191000ADB7BEB712961C930E9311978BE891E06A
:10192000938382838091670690916806A0916906EF
:10193000B0916A0684839583A683B7838DE090E097
:10194000918780870E94FD298DB79EB70A960FB6B2
:10195000F8949EBF0FBE8DBFC8010E94C2031F91A5
:101960000F9108950F931F93282F462F07E016E03D
:10197000C801622F0E940603C8010E94DE038DB7D2
:101980009EB70A970FB6F8949EBF0FBE8DBFEDB7F6
:10199000FEB73196ADB7BEB712961C930E93119752
:1019A00083E991E09383828380913106909132069E
:1019B0009583848385E090E09783868386E090E03A
:1019C000918780870E94FD298DB79EB70A960FB632
:1019D000F8949EBF0FBE8DBFC8010E94C2031F9125
:1019E0000F9108950F931F93282F462F07E016E0BD
:1019F000C801622F0E940603C8010E94DE038DB752
:101A00009EB70A970FB6F8949EBF0FBE8DBFEDB775
:101A1000FEB73196ADB7BEB712961C930E931197D1
:101A200083E991E093838283809133069091340619
:101A30009583848385E090E09783868387E090E0B8
:101A4000918780870E94FD298DB79EB70A960FB6B1
:101A5000F8949EBF0FBE8DBFC8010E94C2031F91A4
:101A60000F910895CF92DF92EF92FF920F931F9301
:101A7000CF93DF93282F462FC7E0D6E0CE01622F09
:101A80000E940603CE010E94DE0360916B067091F6
:101A90006C0680916D0690916E060E941F35209114
:101AA00023063091240640912506509126060E9477
:101AB00052366B017C0120E03CE34CE156E40E948D
:101AC00047361816C4F58DB79EB70C970FB6F89425
:101AD0009EBF0FBE8DBF0DB71EB70F5F1F4FADB7B7
:101AE000BEB71296DC93CE9311978BE991E0F80183
:101AF000938382838BE090E09583848360912E06AC
:101B000070912F0680E090E00E941D359B01AC0192
:101B1000C701B6010E948434D80116966D937D9357
:101B20008D939C93199780912D061A968C931A97F2
:101B30001B961C9221C08DB79EB70C970FB6F894D8
:101B40009EBF0FBE8DBFEDB7FEB73196ADB7BEB726
:101B50001296DC93CE93119785EA91E0938382836A
:101B60008BE090E095838483C682D782E086F186FD
:101B700080912806828713860E94FD29EDB7FEB763
:101B80003C960FB6F894FEBF0FBEEDBF87E096E01F
:101B90000E94C203DF91CF911F910F91FF90EF90B0
:101BA000DF90CF900895EF92FF920F931F93282F0D
:101BB000462F17E0E12E16E0F12EC701622F0E949A
:101BC0000603C7010E94DE030E943E3228EE33E086
:101BD00040E050E00E949F3780916F069091700620
:101BE000A0917106B0917206281B390B4A0B5B0B52
:101BF000CA01B9010E941D356093090470930A045B
:101C000080930B0490930C040E94EC348B019C0194
:101C10008DB79EB70A970FB6F8949EBF0FBE8DBFC3
:101C2000EDB7FEB73196ADB7BEB71296FC92EE9205
:101C300011978FEA91E093838283C8016CE370E08F
:101C40000E948C37758364838AE390E09783868350
:101C5000C8016CE370E00E948C37918780870E94F6
:101C6000FD298DB79EB70A960FB6F8949EBF0FBE9A
:101C70008DBFC7010E94C2031F910F91FF90EF908B
:101C80000895CF93DF93282F462FC7E0D6E0CE01EB
:101C9000622F0E940603CE010E94DE038CE997E0CA
:101CA00068E773E00E94AE30813051F58DB79EB782
:101CB0000A970FB6F8949EBF0FBE8DBFEDB7FEB763
:101CC0003196ADB7BEB71296DC93CE93119789EBE0
:101CD00091E09383828387E190E095838483809170
:101CE0007306992787FD90959783868385E290E018
:101CF000918780870E94FD298DB79EB70A962CC0D8
:101D0000ADB7BEB71C970FB6F894BEBF0FBEADBF40
:101D1000EDB7FEB731961296DC93CE93119783EC14
:101D200091E09383828387E190E09583848380911F
:101D3000740690917506A0917606B0917706868319
:101D40009783A087B18781E090E0938782870E9484
:101D5000FD298DB79EB70C960FB6F8949EBF0FBEA7
:101D60008DBF87E096E00E94C203DF91CF91089576
:101D70000F931F93282F462F07E016E0C801622F0C
:101D80000E940603C8010E94DE038DB79EB7089724
:101D90000FB6F8949EBF0FBE8DBFEDB7FEB731965C
:101DA000ADB7BEB712961C930E9311978DEC91E0D0
:101DB00093838283809178068483158285E290E004
:101DC000978386830E94FD298DB79EB708960FB62C
:101DD000F8949EBF0FBE8DBFC8010E94C2031F9121
:101DE0000F910895BF92CF92DF92EF92FF920F93DF
:101DF0001F93282F462F87E096E0622F0E9406034C
:101E000087E096E00E94DE0380911906813009F098
:101E100034C180916306823028F4DD24D394BB243E
:101E2000B39402C0DD24BB246091790670917A06D8
:101E300080917B0690917C0620911F0630912006B0
:101E400040912106509122060E9452367B018C015E
:101E500060917D0670E0882777FD8095982F0E941D
:101E60001F359B01AC01C801B7010E947D34882356
:101E70004CF480917E06813029F4CC24C394DD2477
:101E8000D39401C0CC2460917F0670E080E090E0A4
:101E90000E941D359B01AC01C801B7010E94473665
:101EA000181624F411E0DD24D39401C010E06091F1
:101EB000800670E080E090E00E941D3520E030E078
:101EC00040E251E40E9484349B01AC0160916706BA
:101ED000709168068091690690916A060E947D342F
:101EE00087FD10C04091810680917306992787FD78
:101EF0009095242F30E08217930714F4442311F4B3
:101F000040E003C041E0DD24D39420910D043091E2
:101F10000E048091820690E0281739075CF42D5951
:101F20003F4F41F080918306882321F431E0DD2486
:101F3000D39401C030E0809184068823C9F4DD2069
:101F400069F08B2D90E001968C0D911D810F911DF4
:101F5000840F911D830F911D029739F485ED91E057
:101F6000909386068093850603C081E08093840663
:101F700080918406813069F491E0B91639F482EEDB
:101F800091E0909386068093850603C082E080935B
:101F9000840680918406823069F4A1E0CA1639F47F
:101FA0008FEE91E0909386068093850603C083E0D0
:101FB0008093840680918406833061F4113039F473
:101FC0008CEF91E0909386068093850603C084E0B1
:101FD0008093840680918406843061F4413039F422
:101FE00089E092E0909386068093850603C085E0A1
:101FF0008093840620918406253041F4313031F4F9
:1020000086E192E09093860680938506922F9F5FEB
:1020100090938406B1E0DB1639F480918706833013
:1020200018F410920F0403C081E080930F049630DF
:1020300010F01092840600D000D000D0EDB7FEB7AB
:10204000319687E096E0ADB7BEB712969C938E931B
:10205000119785E691E09383828380918506909124
:102060008606958384830E94FD298DB79EB70696C8
:102070000FB6F8949EBF0FBE8DBF87E096E00E941A
:10208000C2031F910F91FF90EF90DF90CF90BF9010
:102090000895CF92DF92EF92FF920F931F93282F14
:1020A000462F07E0C02E06E0D02EC601622F0E9408
:1020B0000603C6010E94DE036091900670919106AE
:1020C00080919206909193062091230630912406E8
:1020D00040912506509126060E94523620E030E0BD
:1020E00040E752E40E9452362DEC3CEC4CEC5DE3B0
:1020F0000E9452367B018C01609194067091950686
:10210000809196069091970626E636E646E65FE3CE
:102110000E9452369B01AC01C801B7010E94B7333F
:102120006093940670939506809396069093970615
:102130002DB73EB72E5030400FB6F8943EBF0FBEBD
:102140002DBF0DB71EB70F5F1F4FEDB7FEB7D28281
:10215000C18223E232E0F8013383228325E130E0BB
:102160003583248320E030E040E251E40E9484344F
:102170000E94EC34882777FD8095982F0E941F35A8
:1021800020E030E040E251E40E945236F8016683DC
:10219000778380879187809130068287138680E2DB
:1021A00090E0958784870E94FD292DB73EB7225F76
:1021B0003F4F0FB6F8943EBF0FBE2DBFC6010E9421
:1021C000C2031F910F91FF90EF90DF90CF90089581
:1021D000EF92FF920F931F93282F462F87E0E82E50
:1021E00086E0F82EC701622F0E940603C7010E94F5
:1021F000DE038DB79EB70A970FB6F8949EBF0FBE49
:102200008DBF0DB71EB70F5F1F4FEDB7FEB7F28240
:10221000E1828BE891E0F8019383828360919C06D0
:1022200070919D06882777FD8095982F0E941F3515
:102230002AE037ED43E25CE30E945236F801648302
:102240007583868397838EE090E0918780870E94D4
:10225000FD298DB79EB70A960FB6F8949EBF0FBEA4
:102260008DBFC7010E94C2031F910F91FF90EF9095
:102270000895EF92FF920F931F93282F462F87E028
:1022800096E0622F0E94060387E096E00E94DE033C
:10229000E0909E06F0909F060091A0061091A10686
:1022A000C801B70120E030E040E050E00E947D34FA
:1022B00088234CF4C801B70120E030E044EB53E43C
:1022C0000E94B73302C0C801B70120914306309184
:1022D000440640914506509146060E94B63320E0E0
:1022E00030E044EB53E40E94843420E030E040E8E6
:1022F00051E40E9452360E94B53620E030E040E1C1
:1023000051E40E94B7330E94EC346093A20680919E
:10231000A206813114F0805103C018161CF0805FB2
:102320008093A2066091350670913606809137063B
:10233000909138062AE037ED43E25CE30E94523682
:102340007B018C016091390670913A0680913B06C1
:1023500090913C0624EA30E74DE75FE30E94523655
:102360009B01AC01C801B7010E94B73360933906E5
:1023700070933A0680933B0690933C068091A206A8
:1023800061E00E94ED0987E096E00E94C2031F9180
:102390000F91FF90EF900895CF93DF93282F462F52
:1023A000C7E0D6E0CE01622F0E940603CE010E9454
:1023B000DE038091A3069091A406892B39F58DB791
:1023C0009EB708970FB6F8949EBF0FBE8DBFEDB7AE
:1023D000FEB73196ADB7BEB71296DC93CE93119788
:1023E0008FE292E0938382838BE790E095838483EE
:1023F0008DE790E0978386830E94FD298DB79EB775
:1024000008960FB6F8949EBF0FBE8DBF8091A306AD
:102410009091A406019739F5ADB7BEB718970FB6DE
:10242000F894BEBF0FBEADBFEDB7FEB7319687E0E3
:1024300096E012969C938E9311978CE492E093838E
:1024400082838BE790E0958384838DE790E0978388
:1024500086830E94FD298DB79EB708960FB6F89423
:102460009EBF0FBE8DBF8091A3069091A4060297D8
:1024700039F5ADB7BEB718970FB6F894BEBF0FBE0B
:10248000ADBFEDB7FEB7319687E096E012969C930C
:102490008E93119789E692E0938382838BE790E095
:1024A000958384838DE790E0978386830E94FD293E
:1024B0008DB79EB708960FB6F8949EBF0FBE8DBF1E
:1024C0008091A3069091A406039739F5ADB7BEB7E6
:1024D00018970FB6F894BEBF0FBEADBFEDB7FEB7ED
:1024E000319687E096E012969C938E93119786E83A
:1024F00092E0938382838BE790E0958384838DE7DA
:1025000090E0978386830E94FD298DB79EB7089639
:102510000FB6F8949EBF0FBE8DBF8091A306909119
:10252000A406049739F5ADB7BEB718970FB6F8945F
:10253000BEBF0FBEADBFEDB7FEB7319687E096E0E8
:1025400012969C938E93119783EA92E093838283F1
:102550008BE790E0958384838DE790E09783868373
:102560000E94FD298DB79EB708960FB6F8949EBFBE
:102570000FBE8DBF8091A3069091A406059739F5F3
:10258000ADB7BEB718970FB6F894BEBF0FBEADBFBC
:10259000EDB7FEB7319687E096E012969C938E9346
:1025A000119780EC92E0938382838BE790E0958390
:1025B00084838DE790E0978386830E94FD298DB701
:1025C0009EB708960FB6F8949EBF0FBE8DBF809140
:1025D000A3069091A406069739F5ADB7BEB7189734
:1025E0000FB6F894BEBF0FBEADBFEDB7FEB73196C4
:1025F00087E096E012969C938E9311978DED92E072
:10260000938382838BE790E0958384838DE790E0CA
:10261000978386830E94FD298DB79EB708960FB6D3
:10262000F8949EBF0FBE8DBF8091A3069091A40623
:10263000079739F5ADB7BEB718970FB6F894BEBF78
:102640000FBEADBFEDB7FEB7319687E096E01296AC
:102650009C938E9311978AEF92E0938382838BE70A
:1026600090E0958384838DE790E0978386830E9432
:10267000FD298DB79EB708960FB6F8949EBF0FBE82
:102680008DBF8091A3069091A406089739F5ADB748
:10269000BEB718970FB6F894BEBF0FBEADBFEDB76B
:1026A000FEB7319687E096E012969C938E93119731
:1026B00087E193E0938382838BE790E09583848323
:1026C0008DE790E0978386830E94FD298DB79EB7A2
:1026D00008960FB6F8949EBF0FBE8DBF8091A306DB
:1026E0009091A406099739F5ADB7BEB718970FB604
:1026F000F894BEBF0FBEADBFEDB7FEB7319687E011
:1027000096E012969C938E93119784E393E09383C3
:1027100082838BE790E0958384838DE790E09783B5
:1027200086830E94FD298DB79EB708960FB6F89450
:102730009EBF0FBE8DBF87E096E00E94C203DF916F
:10274000CF910895CF92DF92EF92FF920F931F9354
:10275000282F462F87E096E0622F0E94060387E02D
:1027600096E00E94DE0380918306882379F400912D
:10277000A60610E06091A50670E0601B710B88272B
:1027800077FD8095982F0E941F351CC0813039F449
:102790008091A50680930D0410920E043DC08830F0
:1027A00089F50091A6068091A8069091A9066AE095
:1027B00070E00E94783710E0601B710B80E090E0C1
:1027C0000E941D356B017C016091A70670E0601BC3
:1027D000710B882777FD8095982F0E941F359B01EC
:1027E000AC01C701B6010E94843420E030E048EC1F
:1027F00052E40E9452360E94EC3470930E046093AF
:102800000D040AC0893041F48091A8069091A90670
:1028100090930E0480930D048DB79EB70A970FB660
:10282000F8949EBF0FBE8DBFEDB7FEB7319607E09F
:1028300016E0ADB7BEB712961C930E93119781E5C3
:1028400093E09383828389E090E0958384838091F1
:102850000D0490910E049783868385E290E0918722
:1028600080870E94FD298DB79EB70A960FB6F8940F
:102870009EBF0FBE8DBFC8010E94C2031F910F9162
:10288000FF90EF90DF90CF900895EF92FF920F931B
:102890001F93282F462F97E0E92E96E0F92EC701C7
:1028A000622F0E940603C7010E94DE038DB79EB708
:1028B0000A970FB6F8949EBF0FBE8DBF0DB71EB717
:1028C0000F5F1F4FEDB7FEB7F282E18289E593E01B
:1028D000F801938382838091080490E02091BF06E1
:1028E0003091C006829FB001839F700D929F700D42
:1028F000112420912B0630912C06620F731F80E06B
:1029000090E00E941D3520E030E04AE754E40E9448
:102910008434F801648375838683978380912906C4
:1029200090912A06918780870E94FD298DB79EB7D6
:102930000A960FB6F8949EBF0FBE8DBFC7010E94C6
:10294000C2031F910F91FF90EF9008952F923F9235
:102950004F925F926F927F928F929F92AF92BF92AF
:10296000CF92DF92EF92FF920F931F93DF93CF935B
:1029700000D0CDB7DEB727E0222E26E0322EC101EF
:102980006BE043E00E940603C1010E94DE03C09099
:102990000904D0900A04E0900B04F0900C0480909D
:1029A000230690902406A0902506B090260640901D
:1029B0001F0650902006609021067090220680919C
:1029C00028068983909127069A83EDB7FEB7E854CD
:1029D000F0400FB6F894FEBF0FBEEDBF0DB71EB7A7
:1029E0000F5F1F4F3282218281E693E0F8019383CB
:1029F000828388E090E095838483C701B60120E05C
:102A000030E040E752E40E9484340E94EC34F80144
:102A1000778366838AE390E091878087C701B60158
:102A20000E94EC34DC01CB016CE370E00E948C3737
:102A3000F801938782878BE090E095878487C501B2
:102A4000B4012091C1063091C2064091C306509155
:102A5000C4060E945236F80166877787808B918B77
:102A60008981828B138A8FE890E0958B848BC501D6
:102A7000B4012091B3063091B4064091B50650914F
:102A8000B6060E945236F801668B778B808F918F45
:102A90008981828F138E83E190E0958F848FC301AB
:102AA000B2012091C5063091C6064091C7065091EB
:102AB000C8060E9452360E94EC34F801778F668F68
:102AC0008A8180A311A284E190E093A382A3C30131
:102AD000B2012091C9063091CA064091CB065091AF
:102AE000CC060E9452360E94EC34F80175A364A310
:102AF0008A8186A317A282E190E091A780A7C501F1
:102B0000B4012091CD063091CE064091CF06509170
:102B1000D0060E9452360E94EC34F80173A762A7D7
:102B2000898184A715A68DE190E097A786A7C301A8
:102B3000B2012091D1063091D2064091D306509136
:102B4000D4060E9452360E94EC34F80171AB60AB9F
:102B50008A8182AB13AA87E190E095AB84AB809128
:102B6000740690917506A0917606B091770686ABB3
:102B700097ABA0AFB1AF81E090E093AF82AF83E0BD
:102B800090E095AF84AF025C1F4F80915B069091FF
:102B90005C06A0915D06B0915E06F8018193919369
:102BA000A193B19384E090E08193919380915F062B
:102BB00090916006A0916106B09162068083918336
:102BC000A283B3830E94FD298DB79EB7885B9F4F78
:102BD0000FB6F8949EBF0FBE8DBFC1010E94C20305
:102BE0000F900F90CF91DF911F910F91FF90EF9079
:102BF000DF90CF90BF90AF909F908F907F906F901D
:102C00005F904F903F902F900895CF92DF92EF9278
:102C1000FF920F931F93CF93DF93282F462FC7E088
:102C2000D6E0CE01622F0E940603CE010E94DE0391
:102C30006091B3067091B4068091B5069091B60686
:102C400020912306309124064091250650912606B6
:102C50000E9452366B017C0120E03CE34CE156E4DB
:102C60000E9447361816C4F58DB79EB70C970FB65D
:102C7000F8949EBF0FBE8DBF0DB71EB70F5F1F4FDD
:102C8000ADB7BEB71296DC93CE9311978BE991E066
:102C9000F801938382838FE890E095838483609129
:102CA0002E0670912F0680E090E00E941D359B015A
:102CB000AC01C701B6010E948434D80116966D9309
:102CC0007D938D939C93199780912D061A968C93E2
:102CD0001A971B961C9221C08DB79EB70C970FB602
:102CE000F8949EBF0FBE8DBFEDB7FEB73196ADB75E
:102CF000BEB71296DC93CE93119785EA91E0938349
:102D000082838FE890E095838483C682D782E086B1
:102D1000F18680912806828713860E94FD29EDB7EF
:102D2000FEB73C960FB6F894FEBF0FBEEDBF87E02E
:102D300096E00E94C203DF91CF911F910F91FF9007
:102D4000EF90DF90CF900895EF92FF920F931F9333
:102D5000282F462F87E096E0622F0E94060387E027
:102D600096E00E94DE038091D5069091D60664E637
:102D700070E00E94783780E090E00E941D3520913D
:102D800043063091440640914506509146060E9404
:102D9000B6337B018C0120E030E044EB53E40E9429
:102DA000843420E030E040E851E40E94523620E0D4
:102DB00030E040E85FE30E94B7330E94B5360E94DE
:102DC000EC34862F6093D706161614F0805F03C08C
:102DD00061311CF080518093D706C801B70120E013
:102DE00030E044E353E40E94473618164CF4C8011F
:102DF000B70120E030E044EB53E40E94B63315C045
:102E0000C801B70120E030E044E353EC0E947D3478
:102E100088234CF4C801B70120E030E044EB53E4D0
:102E20000E94B73302C0C801B7010E94F134709309
:102E30003E0660933D068091D70662E00E94ED0950
:102E400087E096E00E94C2031F910F91FF90EF90E0
:102E50000895EF92FF920F931F93CF93DF93282F44
:102E6000462F87E096E0622F0E94060387E096E0F7
:102E70000E94DE036091410670914206882777FD2B
:102E80008095982F0E941F3520914306309144066B
:102E900040914506509146060E94B63320E030E04E
:102EA00044EB53E40E94843420E030E040E851E4F5
:102EB0000E9452360E94B53620E030E040E85FE3E1
:102EC0000E94B7330E94EC34862F60934706161693
:102ED00014F0805F03C061311CF08051809347067D
:102EE000E0904806F090490600914A0610914B0682
:102EF000C801B70120E030EC49E754E40E944736AE
:102F000018162CF480E090ECA9E7B4E40EC0C801D8
:102F1000B70120E030EC49E754EC0E947D3488236F
:102F200064F480E090ECA9E7B4EC809348069093B9
:102F30004906A0934A06B0934B068DB79EB74297B9
:102F40000FB6F8949EBF0FBE8DBF0DB71EB70F5FB3
:102F50001F4FC7E0D6E0EDB7FEB7D283C1838DEB3C
:102F600093E0F8019383828387E590E095838483DF
:102F700080E790E09783868380914C068087118656
:102F80001386128660914D0670914E0680E090E0A7
:102F90000E941D352091230630912406409125067C
:102FA000509126060E945236F801648775878687FD
:102FB000978780912806808B118A0E94FD298DB702
:102FC0009EB742960FB6F8949EBF0FBE8DBF8091FC
:102FD000470660E00E94ED0980913F068A3029F0A3
:102FE0008F3019F0873009F047C0EDB7FEB7709702
:102FF0000FB6F894FEBF0FBEEDBF0DB71EB70F5F43
:103000001F4F87E096E0928381838FEC93E0F80175
:103010009383828380E290E09583848388E590E0C7
:103020009783868385E690E0918780876091480644
:103030007091490680914A0690914B062091230693
:103040003091240640912506509126060E94523662
:10305000F801628773878487958780912806868721
:1030600017860E94FD298DB79EB740960FB6F8943B
:103070009EBF0FBE8DBF10C000D000D0EDB7FEB711
:10308000D283C18386ED90E0948383830E94EC29F0
:103090000F900F900F900F9087E096E00E94C20370
:1030A000DF91CF911F910F91FF90EF9008950F93B3
:1030B0001F93282F462F07E016E0C801622F0E94B9
:1030C0000603C8010E94DE0300D000D0EDB7FEB7B2
:1030D000128301838FED90E0948383830E94EC2917
:1030E0000F900F900F900F90C8010E94C2031F9184
:1030F0000F910895CF92DF92EF92FF920F931F935B
:103100007C01D62EC72E07E016E0C8016E2D4D2D8E
:103110000E940603C8010E94DE0300D000D0EDB774
:10312000FEB7128301838CEE90E0948383830E9428
:10313000EC290F900F900F900F90C8010E94C203CE
:10314000C70101966D2D7C2D0E9473081F910F9170
:10315000FF90EF90DF90CF900895EF92FF920F9342
:103160001F93CF93DF93282F462FC7E0D6E0CE01E1
:10317000622F0E940603CE010E94DE038CE997E0D5
:1031800062E773E00E94AE30882381F000D000D067
:10319000EDB7FEB7D283C18384E391E09483838348
:1031A0000E94EC290F900F900F900F908DB79EB753
:1031B0000A970FB6F8949EBF0FBE8DBF0DB71EB70E
:1031C0000F5F1F4F37E0E32E36E0F32EEDB7FEB76B
:1031D000F282E1828DED93E0F80193838283609126
:1031E000790670917A0680917B0690917C062091F9
:1031F0001F063091200640912106509122060E9420
:103200005236F801648375838683978380912706FD
:10321000808711860E94FD298DB79EB70A960FB64A
:10322000F8949EBF0FBE8DBFC7010E94C203DF91FD
:10323000CF911F910F91FF90EF900895EF92FF9221
:103240000F931F93CF93DF93282F462FC7E0D6E02D
:10325000CE01622F0E940603CE010E94DE038CE99C
:1032600097E060E773E00E94AE30882381F000D0E1
:1032700000D0EDB7FEB7D283C18386E391E094839B
:1032800083830E94EC290F900F900F900F908DB7C1
:103290009EB70A970FB6F8949EBF0FBE8DBF0DB7AD
:1032A0001EB70F5F1F4F47E0E42E46E0F42EEDB748
:1032B000FEB7F282E1828DED93E0F8019383828381
:1032C000609188067091890680918A0690918B069C
:1032D00020911F0630912006409121065091220630
:1032E0000E945236F80164837583868397838091A8
:1032F0002706808711860E94FD298DB79EB70A9602
:103300000FB6F8949EBF0FBE8DBFC7010E94C203C7
:10331000DF91CF911F910F91FF90EF900895EF9261
:10332000FF920F931F93CF93DF93282F462FC7E071
:10333000D6E0CE01622F0E940603CE010E94DE037A
:103340008CE997E06EE673E00E94AE30882381F04E
:1033500000D000D0EDB7FEB7D283C18388E391E0FF
:10336000948383830E94EC290F900F900F900F900D
:103370008DB79EB70A970FB6F8949EBF0FBE8DBF4C
:103380000DB71EB70F5F1F4F57E0E52E56E0F52E25
:10339000EDB7FEB7F282E18285EE93E0F801938308
:1033A000828360918C0670918D0680918E0690913B
:1033B0008F062091230630912406409125065091D6
:1033C00026060E945236F8016483758386839783AC
:1033D00080912806808711860E94FD298DB79EB7AF
:1033E0000A960FB6F8949EBF0FBE8DBFC7010E940C
:1033F000C203DF91CF911F910F91FF90EF9008953D
:10340000EF92FF920F931F93CF93DF93282F462FB6
:10341000C7E0D6E0CE01622F0E940603CE010E94D3
:10342000DE038CE997E06CE673E00E94AE308823FF
:1034300081F000D000D0EDB7FEB7D283C1838AE31C
:1034400091E0948383830E94EC290F900F900F905A
:103450000F908DB79EB70A970FB6F8949EBF0FBE18
:103460008DBF0DB71EB70F5F1F4F67E0E62E66E0FA
:10347000F62EEDB7FEB7F282E18285EE93E0F80119
:1034800093838283609198067091990680919A0641
:1034900090919B06209123063091240640912506A9
:1034A000509126060E945236F80164837583868304
:1034B000978380912806808711860E94FD298DB709
:1034C0009EB70A960FB6F8949EBF0FBE8DBFC70178
:1034D0000E94C203DF91CF911F910F91FF90EF9057
:1034E0000895AF92BF92CF92DF92EF92FF920F9327
:1034F0001F93282F462F87E096E0622F0E94060335
:1035000087E096E00E94DE03809178069091AA06FB
:10351000882309F4ADC0992319F481E08093AA06A9
:10352000A0908806B0908906C0908A06D0908B063D
:10353000C601B50120E030E040E050E00E947D345B
:10354000882309F448C060919C0670919D068827E5
:1035500077FD8095982F0E941F3520E030E040E2F3
:1035600051E40E9452367B018C01C601B5012091C5
:103570001F063091200640912106509122060E949C
:1035800052369B01AC01C801B7010E9484342DEC76
:103590003CEC4CEC5DE30E9452367B018C01609167
:1035A000AB067091AC068091AD069091AE0626E612
:1035B00036E646E65FE30E9452369B01AC01C80145
:1035C000B7010E94B7336093AB067093AC0680934B
:1035D000AD069093AE06E090AB06F090AC0600917D
:1035E000AD061091AE06C801B70120E030E040E022
:1035F00050E00E944736181674F5C801B70120E064
:103600003CE34CE156E40E947D34181624F18DB75A
:103610009EB70C970FB6F8949EBF0FBE8DBFEDB747
:10362000FEB7319687E096E0ADB7BEB712969C9391
:103630008E93119783EC91E09383828386E190E0EF
:1036400095838483E682F7820087118781E090E08A
:1036500093878287DDC000D000D087E096E0ADB7C9
:10366000BEB712969C938E9311978AE491E0F7C0AF
:10367000992311F180918C0690918D06A0918E0670
:10368000B0918F068093AF069093B006A093B106D9
:10369000B093B2068091B3069091B406A091B5069E
:1036A000B091B6068093B7069093B806A093B9067A
:1036B000B093BA061092AA06E0909006F090910698
:1036C0000091920610919306C801B7012DEC3CECD5
:1036D0004CE45DEB0E947D3488230CF0A4C0E090A4
:1036E0008C06F0908D0600918E0610918F066091E9
:1036F000AF067091B0068091B1069091B206A80114
:1037000097010E94B6339B01AC01C801B7010E942A
:1037100084347B018C016091B3067091B406809172
:10372000B5069091B6062091B7063091B806409143
:10373000B9065091BA060E94B6339B01AC01C8018C
:10374000B7010E9452362091230630912406409101
:103750002506509126060E9452366093BB06709350
:10376000BC068093BD069093BE0620E03CE34CE18E
:1037700056E40E944736181664F480E09CE3ACE1FE
:10378000B6E48093BB069093BC06A093BD06B093AD
:10379000BE06E090BB06F090BC060091BD061091FD
:1037A000BE06C801B70120E03CEC4CED56E40E9497
:1037B0007D34882309F46AC0C801B70120E030E0F5
:1037C00040E050E00E94473618160CF05FC0EDB79D
:1037D000FEB73C970FB6F894FEBF0FBEEDBF319613
:1037E00087E096E0ADB7BEB712969C938E93119783
:1037F00083EC91E09383828388E190E095838483D6
:10380000E682F782008711878091280682871386D7
:103810000E94FD29EDB7FEB73C960FB6F894FEBFA7
:103820000FBEEDBF33C0C801B7012DEC3CEC4CE43A
:103830005DEB0E9447368823BCF08091330690915F
:10384000340697FF11C000D000D087E096E0ADB7F6
:10385000BEB712969C938E93119783E491E01496D1
:103860009C938E9313970CC000D000D087E096E015
:10387000EDB7FEB7928381838CE391E094838383D9
:103880000E94EC290F900F900F900F9087E096E028
:103890000E94C2031F910F91FF90EF90DF90CF9095
:1038A000BF90AF9008950F931F9307E016E0C801F3
:1038B00065E045E00E940603C8010E94DE0300D0D7
:1038C00000D0EDB7FEB71283018381E591E09483C8
:1038D00083830E94EC290F900F900F900F90C801E6
:1038E0000E94C2031F910F9108950E94531C0E94D1
:1038F0004C070895EF92FF920F931F9380917E06DD
:103900008130D9F560918C0670918D0680918E067C
:1039100090918F0620E030E040E251E40E9447366B
:1039200018160CF1609188067091890680918A06BC
:1039300090918B0620E030E040E85FE30E9447363C
:1039400018168CF080917806823068F480916B06AE
:1039500090916C06A0916D06B0916E06853691052A
:10396000A105B10554F00E943E326093100470939B
:10397000110480931204909313040E943E320E941B
:103980001D357B018C016091D8067091D90680911C
:10399000DA069091DB0620E030E849E055E40E9429
:1039A000B7339B01AC01C801B7010E944736181616
:1039B00094F480911404823039F087E096E00E94FC
:1039C0002B0482E08093140485E090E06AE070E0CC
:1039D0000E94571895C10E943E3268557B41804035
:1039E00090402091100430911104409112045091A4
:1039F0001304261737074807590770F480911404F9
:103A0000813039F087E096E00E942B0481E08093BA
:103A100014040E94A61474C18091720580FF08C02E
:103A20006091CC058091CA0590E070E00E94F20E92
:103A30008091DC06882321F480911404882341F0CE
:103A400087E096E00E942B041092DC06109214048A
:103A500080916C0581FF08C06091780580917605A2
:103A600090E070E00E94F20C80916C0582FF08C02B
:103A700060917C0580917A0590E070E00E94B20C24
:103A800080916C0583FF08C06091800580917E0560
:103A900090E070E00E94700C80916C0585FF08C07A
:103AA000609184058091820590E070E00E94200C76
:103AB00080916C0587FF08C060918C0580918A0514
:103AC00090E070E00E94D60B80916C0584FF08C0E6
:103AD0006091900580918E0590E070E00E94410E0B
:103AE00080916C0586FF08C06091880580918605ED
:103AF00090E070E00E94A41680916E0580FF08C0DF
:103B0000609194058091920590E070E00E94560BC0
:103B100080916E0581FF08C060919805809196059F
:103B200090E070E00E94940B8091DD068130C1F43A
:103B300080916E0584FF08C06091A00580919E056C
:103B400090E070E00E94320D80916E0583FF08C006
:103B500060919C0580919A0590E070E00E943E0B78
:103B600080916E0587FF08C06091A8058091A60529
:103B700090E070E00E94D30D80914C06882361F0A4
:103B800080916E0586FF08C06091A4058091A20512
:103B900090E070E00E9429178091700582FF08C0B4
:103BA0006091B0058091AE0590E070E00E94001A2F
:103BB0008091700587FF08C06091B4058091B205BF
:103BC00090E070E00E948F198091700583FF08C01B
:103BD0006091B8058091B60590E070E00E941E19D2
:103BE0008091700581FF08C06091BC058091BA0585
:103BF00090E070E00E94AD188091700584FF08C0CD
:103C00006091C0058091BE0590E070E00E94B80E02
:103C10008091700585FF08C06091C4058091C20540
:103C200090E070E00E94CE0A8091700586FF08C087
:103C30006091C8058091C60590E070E00E947A18F6
:103C40008091700580FF08C06091AC058091AA0545
:103C500090E070E00E94E8108091720582FF08C039
:103C60006091D0058091CE0590E070E00E943911FE
:103C70008091720583FF08C06091D4058091D205C0
:103C800090E070E00E9449108091720586FF08C0A4
:103C90006091D8058091D60590E070E00E94A21353
:103CA0008091720587FF08C06091DC058091DA057C
:103CB00090E070E00E94711A8091720585FF08C043
:103CC0006091E0058091DE0590E070E00E94CC11EB
:103CD0008091740581FF08C06091E4058091E20540
:103CE00090E070E00E9445148091740582FF08C046
:103CF0006091E8058091E60590E070E00E9405166D
:103D00000E94A6051F910F91FF90EF900895CF9309
:103D1000DF93EC0187E096E00E940203C817D90701
:103D20003CF087E096E00E94F702892B09F4239784
:103D3000CE01DF91CF91089588E990E00E94370885
:103D4000882321F080916C05806103C080916C050F
:103D50008F7E80936C058AE990E00E9437088093FB
:103D60008E058CE990E00E94370890E00E94871E43
:103D70008093900586E090E00E943708882321F028
:103D800080916C05826003C080916C058D7F80936B
:103D90006C0588E090E00E943708809376058AE001
:103DA00090E00E94370890E00E94871E809378057B
:103DB0008CE090E00E943708882321F080916C0508
:103DC000846003C080916C058B7F80936C058EE0CE
:103DD00090E00E94370880937A0580E190E00E948D
:103DE000370890E00E94871E80937C0582E190E076
:103DF0000E943708882321F080916C05886003C0F9
:103E000080916C05877F80936C0584E190E00E942F
:103E1000370880937E0586E190E00E94370890E0A5
:103E20000E94871E809380058EE190E00E943708F3
:103E3000882321F080916C05806203C080916C051D
:103E40008F7D80936C0580E290E00E94370880931C
:103E5000820582E290E00E94370890E00E94871E6F
:103E60008093840584E290E00E943708882321F043
:103E700080916C05806403C080916C058F7B80937A
:103E80006C0586E290E00E9437088093860588E200
:103E900090E00E94370890E00E94871E809388057A
:103EA0008AE290E00E943708882321F080916C0517
:103EB000806803C080916C058F7780936C058CE2DD
:103EC00090E00E94370880938A058EE290E00E947D
:103ED000370890E00E94871E80938C0580E390E075
:103EE0000E943708882321F080916E05816003C00D
:103EF00080916E058E7F80936E0582E390E00E9434
:103F000037088093920584E390E00E94370890E0A0
:103F10000E94871E8093940586E390E00E943708F4
:103F2000882321F080916E05826003C080916E0528
:103F30008D7F80936E0588E390E00E943708809320
:103F400096058AE390E00E94370890E00E94871E61
:103F50008093980588E490E00E943708882321F038
:103F600080916E05806103C080916E058F7E809385
:103F70006E058AE490E00E94370880939E058CE4E9
:103F800090E00E94370890E00E94871E8093A00571
:103F900082E490E00E943708882321F080916E052A
:103FA000886003C080916E05877F80936E0584E4EE
:103FB00090E00E94370880939A0586E490E00E9482
:103FC000370890E00E94871E80939C0586E590E06C
:103FD0000E943708882321F080916E05806403C019
:103FE00080916E058F7B80936E0588E590E00E943E
:103FF00037088093A2058AE590E00E94370890E098
:104000000E94871E8093A4058EE990E00E943708E5
:10401000882321F080916E05806803C080916E0531
:104020008F7780936E0580EA90E00E943708809336
:10403000A60582EA90E00E94370890E00E94871E61
:104040008093A80582E690E00E943708882321F03B
:1040500080917005816003C0809170058E7F809390
:10406000700584E690E00E9437088093AA0586E6F2
:1040700090E00E94370890E00E94871E8093AC0574
:104080008EE690E00E943708882321F08091700529
:10409000846003C0809170058B7F8093700580E7FA
:1040A00090E00E9437088093AE0582E790E00E947E
:1040B000370890E00E94871E8093B0058CE890E05E
:1040C0000E943708882321F080917005806803C022
:1040D000809170058F77809370058EE890E00E9444
:1040E00037088093B20580E990E00E94370890E09D
:1040F0000E94871E8093B40582E990E00E943708F1
:10410000882321F080917005826003C08091700542
:104110008D7F8093700584E990E00E94370880933A
:10412000BA0586E990E00E94370890E00E94871E59
:104130008093BC0584E790E00E943708882321F033
:1041400080917005886003C080917005877F80939F
:10415000700586E790E00E9437088093B60588E7EF
:1041600090E00E94370890E00E94871E8093B80577
:104170008AE790E00E943708882321F0809170053B
:10418000806103C0809170058F7E809370058CE7FD
:1041900090E00E9437088093BE058EE790E00E9471
:1041A000370890E00E94871E8093C00580E890E069
:1041B0000E943708882321F080917005806203C037
:1041C000809170058F7D8093700582E890E00E9459
:1041D00037088093C20584E890E00E94370890E099
:1041E0000E94871E8093C40586E890E00E943708ED
:1041F000882321F080917005806403C08091700550
:104200008F7B8093700588E890E00E943708809348
:10421000C6058AE890E00E94370890E00E94871E59
:104220008093C80584EA90E00E943708882321F033
:1042300080917205816003C0809172058E7F8093AA
:10424000720586EA90E00E9437088093CA0588EAE2
:1042500090E00E94370890E00E94871E8093CC0572
:1042600080EB90E00E943708882321F0809172054E
:10427000846003C0809172058B7F8093720582EB0E
:1042800090E00E9437088093CE0584EB90E00E9476
:10429000370890E00E94871E8093D00586EB90E05F
:1042A0000E943708882321F080917205886003C03E
:1042B00080917205877F8093720588EB90E00E9461
:1042C00037088093D2058AEB90E00E94370890E08F
:1042D0000E94871E8093D4058CE590E00E943708E9
:1042E000882321F080917205806403C0809172055B
:1042F0008F7B809372058EE590E00E943708809353
:10430000D60580E690E00E94370890E00E94871E64
:104310008093D80582EC90E00E943708882321F032
:1043200080917205806803C0809172058F778093B9
:10433000720584EC90E00E9437088093DA0586ECE1
:1043400090E00E94370890E00E94871E8093DC0571
:1043500088EC90E00E943708882321F08091720554
:10436000806203C0809172058F7D809372058AEC14
:1043700090E00E9437088093DE058CEC90E00E946C
:10438000370890E00E94871E8093E00584ED90E05E
:104390000E943708882321F080917405826003C051
:1043A000809174058D7F8093740586ED90E00E9466
:1043B00037088093E20588ED90E00E94370890E08E
:1043C0000E94871E8093E40580EE90E00E943708EB
:1043D000882321F080917405846003C08091740566
:1043E0008B7F8093740582EE90E00E943708809363
:1043F000E60584EE90E00E94370890E00E94871E58
:104400008093E80508958CE997E064E773E00E94E3
:10441000AE30882339F08CE997E064E773E040E040
:104420000E94B5308CE997E062EA73E00E94AE30FA
:10443000823039F08CE997E062EA73E042E00E9452
:10444000B5308CE997E064EA73E00E94AE308430C6
:1044500039F08CE997E064EA73E044E00E94B530FB
:104460008CE997E066EA73E00E94AE30813039F063
:104470008CE997E066EA73E041E00E94B530089568
:104480008F929F92AF92BF92CF92DF92FF920F9343
:104490001F93CF93DF93F62E4901C82EDD248601AA
:1044A000000F111F5801AC0CBD1CE501CC0FDD1F26
:1044B000CC0FDD1FC259D84F18828B819C8184306C
:1044C000910509F48EC0853091055CF48230910528
:1044D00009F443C0833091050CF0BFC09923C4F4A4
:1044E0004FC28730910509F443C18830910544F4E7
:1044F0008530910509F4DEC0069709F041C207C175
:104500008830910509F47AC1099709F039C2E7C1E9
:104510008EEF681709F034C282E090E09C838B83B1
:1045200080E790E0C89ED001C99EB00DD89EB00D26
:104530001124A250B94F13961C92139788E390E070
:10454000C89EF001C99EF00DD89EF00D1124EE0F0B
:10455000FF1FE050F94F6083A4C1E5E6E61788F439
:1045600089818F5F8983F501EE0FFF1FEE0FFF1F1B
:10457000E059F84F80818F5F8083188281E090E05E
:104580002DC080E790E0C89EF001C99EF00DD89E36
:10459000F00D1124E250F94F63831D82808186273C
:1045A000282F2295207F282730E0522F4427C90149
:1045B00063E0880F991F6A95E1F7482759278181A1
:1045C00090E04827592784E0359527958A95E1F7AB
:1045D000422753275183408384E090E09C838B8360
:1045E000CFC18CE190E0C89EF001C99EF00DD89E2D
:1045F000F00D1124EE0FFF1FEE0FFF1FEE5FF84FBF
:10460000608380E790E0C89EF001C99EF00DD89EBF
:10461000F00D1124E250F94F80818627282F229532
:10462000207F282730E0522F4427C901B3E0880FAC
:10463000991FBA95E1F748275927818190E04827CB
:104640005927A4E035952795AA95E1F742275327E6
:104650005183408383E090E0C1CF80E790E0C89E23
:10466000F001C99EF00DD89EF00D1124E250F94FD3
:10467000658380818627282F2295207F282730E098
:10468000522F4427C90163E0880F991F6A95E1F70B
:1046900048275927818190E04827592704E035951C
:1046A00027950A95E1F7422753275183408385E0F8
:1046B00090E094CF80E790E0C89EF001C99EF00D95
:1046C000D89EF00D1124E250F94F66838081862731
:1046D000282F2295207F282730E0522F4427C90118
:1046E000B3E0880F991FBA95E1F7482759278181D0
:1046F00090E048275927A4E035952795AA95E1F73A
:10470000422753275183408386E090E067CF80E7BC
:1047100090E0C89EF001C99EF00DD89EF00D1124C6
:10472000E250F94F678380818627282F2295207FCA
:10473000282730E0522F4427C90163E0880F991FD2
:104740006A95E1F748275927818190E04827592742
:1047500094E0359527959A95E1F7422753275183A1
:1047600040838381882309F446C087E090E036CFF8
:104770006D81F80183E0EE0FFF1F8A95E1F7E01BE2
:10478000F10B319603E0EE0FFF1F0A95E1F7E60FFC
:10479000F11DE250F94FF0826F5F6D8380E790E08A
:1047A000C89EF001C99EF00DD89EF00D1124E25074
:1047B000F94F80818F25282F2295207F282730E0F0
:1047C000522F4427C901B3E0880F991FBA95E1F72A
:1047D00048275927818190E048275927A4E035953B
:1047E0002795AA95E1F74227532751834083838178
:1047F000681709F0C5C088E090E0F0CE80E790E04F
:10480000C89ED001C99EB00DD89EB00D1124A250F3
:10481000B94F9C911796EC911797F0E0E35DFB4F31
:1048200080818927482F4295407F482750E0342FC8
:104830002227CA0173E0880F991F7A95E1F728278C
:10484000392711968C91119790E02827392764E039
:10485000559547956A95E1F72427352711963C939E
:104860002E938F2D90E0307082179307F9F0F501A9
:10487000EE0FFF1FEE0FFF1FE059F84F80818F5F93
:104880008083188281E090E09C838B83FEEFFF168B
:1048900009F076C082E090E09C838B8313961C9293
:1048A00013978FEF9FEF8D939C936AC089E090E000
:1048B0009C838B83F80183E0EE0FFF1F8A95E1F75D
:1048C000E01BF10B319613E0EE0FFF1F1A95E1F795
:1048D0008D81E80FF11DE250F94FF08251C0262F73
:1048E00030E080E790E0C89EB001C99E700DD89E70
:1048F000700D11246250794FFB01818190E02817DF
:104900003907E9F0F501EE0FFF1FEE0FFF1FE05929
:10491000F84F80818F5F8083188281E090E09C83D4
:104920008B83FEEFFF1661F582E090E09C838B8322
:10493000EB011B828FEF9FEF9983888321C081E079
:10494000888381E090E09C838B83F801A3E0EE0FE5
:10495000FF1FAA95E1F7E01BF10B319633E0EE0F54
:10496000FF1F3A95E1F78D81E80FF11DE150F94FF6
:10497000F082DA01FB0180E701900D928150E1F7AE
:10498000D601AA0FBB1FAC0DBD1DAA0FBB1FAA0FDE
:10499000BB1FA259B84F8C91813069F58CE190E032
:1049A000C89EF001C99EF00DD89EF00D1124EE0FA7
:1049B000FF1FEE0FFF1FEE5FF84F808116968C935E
:1049C000169718968D919C911997892B21F41B9617
:1049D0001C921E921A97F601EE0FFF1FEC0DFD1DA3
:1049E000EE0FFF1FEE0FFF1FE259F84F80859185F4
:1049F000019691878087F601EE0FFF1FEC0DFD1DDC
:104A0000EE0FFF1FEE0FFF1FDF01A259B84F1696E2
:104A10008C9116978F5FE4018E8318968D919C91EF
:104A2000199799878887E059F84F80818A871B8674
:104A300010828C91DF91CF911F910F91FF90DF90A9
:104A4000CF90BF90AF909F908F9008955F926F929C
:104A50007F928F929F92AF92BF92CF92DF92EF920E
:104A6000FF920F931F93DF93CF93CDB7DEB7C85458
:104A7000D0400FB6F894DEBF0FBECDBF87E096E002
:104A80000E942B0400D000D00AEE15E0EDB7FEB76F
:104A9000128301838DEE93E0948383830E94EC293B
:104AA000EE24FF24CC24DD240F900F900F900F9064
:104AB000502E012F39E0A32EB12CAC0EBD1E3E01AD
:104AC0000894611C711C2DEF822E23E0922E8AEE39
:104AD00095E00E94A02A982F8D3031F08D30DCF1C6
:104AE00080538230C0F530C01830A1F59981892FEC
:104AF0008053823078F5913311F490E801C090E052
:104B00008A81813309F4905C8B81813309F4905E52
:104B10008C81813309F4905F8D81813309F4985F32
:104B20008E81813309F49C5F8F81813309F49E5F0C
:104B30008885813309F49F5FF501EE0DFF1D908399
:104B40000894E11CF11C06C0F301E10FF11D9083F4
:104B50001F5F01C010E0F0E4EF16F104C9F487E034
:104B600096E0B601A5010E9416030894C11CD11C51
:104B700000D000D0EDB7FEB75182028394828382C9
:104B80000E94EC29EE24FF240F900F900F900F90BD
:104B9000FFEFCF16D10409F00CF499CFC85BDF4FBB
:104BA0000FB6F894DEBF0FBECDBFCF91DF911F913E
:104BB0000F91FF90EF90DF90CF90BF90AF909F90BC
:104BC0008F907F906F905F900895AF92BF92CF9239
:104BD000DF92EF92FF920F931F93DF93CF93CDB7A6
:104BE000DEB7CC57D0400FB6F894DEBF0FBECDBFB6
:104BF0008E01035F1F4F5E010894A11CB11CEE24BF
:104C0000E39445E1C42ED12CCC0EDD1ED5C18AEE35
:104C100095E00E94A02AF82E8091E906882311F5DC
:104C20000E943E3260527E4480409040D8F40E9400
:104C30003E326958734180409040A0F0FAE0FF1680
:104C400019F02DE0F21631F48091EA068F5F80931F
:104C5000EA0602C01092EA068091EA06833011F457
:104C60000E94262580E06F2DA80195010E94402218
:104C7000882309F49DC10E943E320E941D35609335
:104C8000D8067093D9068093DA069093DB06E092FB
:104C9000E9068C89813209F46AC1823290F4883144
:104CA00009F45BC0893130F48823F1F0813009F0D8
:104CB0007FC12CC08D3109F452C18E3109F078C109
:104CC000D2C08E3309F4F2C08F3338F4833209F442
:104CD0000CC18A3209F06CC103C18A3409F47BC06B
:104CE000883A09F065C121C1E092EB068A89809378
:104CF000EC068B898093ED06F801808580933F0652
:104D000086858093EE061092EF0652C1F601668505
:104D1000778580E090E00E941D3520E030E04AE792
:104D200054E40E948434609367067093680680930D
:104D3000690690936A06F801808D918D90939D0687
:104D400080939C0686A180937306F601848D958DD1
:104D50009093A4068093A3062BC1F8016089718902
:104D6000828993890E941F3520E836E948E15BE497
:104D70000E94843460935B0670935C0680935D06AA
:104D800090935E06F80164897589868997890E94E7
:104D90001F3520E836E948E15BE40E9484346093E3
:104DA0005F06709360068093610690936206F60139
:104DB000848D80936306858D80936606828D938DA6
:104DC0009093D6068093D50684899589909365063D
:104DD00080936406EDC0F60180819181A281B38148
:104DE0008093790690937A06A0937B06B0937C0615
:104DF00084819581A681B7818093880690938906E6
:104E0000A0938A06B0938B06F801608D718D882778
:104E100077FD8095982F0E941F356093430670930D
:104E200044068093450690934606F801828D809350
:104E3000780680899189A289B38980939806909396
:104E40009906A0939A06B0939B06F60184859585F2
:104E5000A685B7858093900690939106A0939206BD
:104E6000B0939306A5C0F8016089718982899389FE
:104E700021EE3EE245E652E40E9452360E94EC34B6
:104E80007093340660933306F801648575858685D2
:104E9000978521EE3EE245E652E40E9452360E949A
:104EA000EC34709332066093310682C0F801868D2F
:104EB000978D909342068093410680A191A1909393
:104EC0004E0680934D06808D918DA28DB38D80937B
:104ED000480690934906A0934A06B0934B0668C0D3
:104EE000F801808580934C0663C0F6018485958522
:104EF0009093F1068093F006868597859093F3064C
:104F00008093F206F801808D918D9093F506809341
:104F1000F406F601828993899093A9068093A806E6
:104F2000F801858D8093A50643C0F60180819181AB
:104F3000A281B38180939E0690939F06A093A006C2
:104F4000B093A10684819581A681B78180933506AF
:104F500090933606A0933706B093380629C0F8011F
:104F6000848995899093C0068093BF0621C0F8017B
:104F7000608D718D828D938D0E941F352FE632E1F9
:104F800043E85AEB0E9452369B01AC0160919806AF
:104F90007091990680919A0690919B060E94B73372
:104FA0006093F6067093F7068093F8069093F906DF
:104FB0008AE890E00E94A5328AEE95E00E94702A6D
:104FC000181619060CF423CE8091FA069091FB0670
:104FD0002B853C85820F931F9093FB068093FA06E6
:104FE0002B818091FC069091FD06820F911D90937C
:104FF000FD068093FC06C458DF4F0FB6F894DEBF61
:105000000FBECDBFCF91DF911F910F91FF90EF9019
:10501000DF90CF90BF90AF90089586E061E00E944E
:10502000293308950F931F9386E061E00E94EA32CE
:105030000AEE15E0C80140E051EE60E070E00E9429
:105040000E2A10939E0700939D070E940D2887E06B
:1050500096E00E94AA040E94751C64EF71E080E053
:1050600090E00E944C320E94C4070E949C1E60ED9A
:1050700077E080E090E00E944C32C8010E94ED2A67
:105080001F910F9108952F923F924F925F926F92CE
:105090007F928F929F92AF92BF92CF92DF92EF92C8
:1050A000FF920F931F93DF93CF9300D000D0CDB723
:1050B000DEB7609198067091990680919A0690915A
:1050C0009B062091F6063091F7064091F806509124
:1050D000F9060E94B63360938C0670938D06809318
:1050E0008E0690938F068091DD06882349F5809186
:1050F0006306833009F006C180915B0690915C06DF
:10510000A0915D06B0915E0680938207909383071D
:10511000A0938407B093850780915F069091600605
:10512000A0916106B09162068093860790938707ED
:10513000A0938807B093890781E08093DD06E2C0E1
:10514000813009F0DFC0E0908207F0908307009182
:10515000840710918507C801B7019F7725E33AEFCF
:105160004EE85CE30E9452360E94813469837A8360
:105170008B839C83C801B70120915B0630915C064C
:1051800040915D0650915E060E94B6331B012C01D2
:105190009F7720EC3BE649ED57E40E9452365B01D5
:1051A0006C016091860770918707809188079091C4
:1051B000890720915F063091600640916106509109
:1051C00062060E94B6333B014C019F7720EC3BE620
:1051D00049ED57E40E94523629813A814B815C8126
:1051E0000E9452367B018C01C601B501A6019501D2
:1051F0000E9452365B016C01C801B701A8019701FA
:105200000E9452369B01AC01C601B5010E94B73322
:105210000E94D9360E94EC3460936B0670936C0642
:1052200080936D0690936E0660E070E080E89FE3E7
:1052300029813A814B815C810E9484349B01AC01BD
:10524000C201B1010E94523697FA909497F8909457
:10525000A40193010E942A3420EE3EE245E652E486
:105260000E94523620E030E044EB52E40E94B73313
:105270000E94EC349B01AC0197FF04C028593E4FBB
:105280004F4F5F4FCA01B901645B7040804090404E
:1052900097FF06C0CA01B9016C547F4F8F4F9F4FD3
:1052A0000E941F35209143063091440640914506E7
:1052B000509146060E94B6330E94EC3497FF04C01A
:1052C00068597E4F8F4F9F4F0E941F3520E030E07E
:1052D00044EB53E40E94843420E030E040E851E4A1
:1052E0000E9452360E94B53620E030E040E85FE38D
:1052F0000E94B7330E94F13460934006613110F090
:10530000109240060F900F900F900F90CF91DF9169
:105310001F910F91FF90EF90DF90CF90BF90AF90D3
:105320009F908F907F906F905F904F903F902F90C5
:1053300008950E943D0887E096E00E9443280E945D
:105340007A1C0E94D5050E94032208950E943E32D5
:1053500020917A0730917B0740917C0750917D071F
:1053600028583F4F4F4F5F4F2617370748075907B9
:1053700060F40E943E3260937A0770937B078093BB
:105380007C0790937D070E9499290E94E525089546
:105390006EBD0DB407FEFDCF8EB508958DE061E0C2
:1053A0000E94EA328BE061E00E94EA328CE060E029
:1053B0000E94EA328AE061E00E94EA321CBC80E589
:1053C0008CBD8DB58EB508958AE897E00E94CE29F0
:1053D00008958FEF9FE70895DF93CF93CDB7DEB7A2
:1053E000FE0139968D819E8161E04F8158859F0134
:1053F0000E948D2CCF91DF910895DF93CF93CDB78D
:10540000DEB7FE0139968D819E8160E04F8158851F
:105410009F010E948D2CCF91DF9108950F931F93D0
:10542000DC01ED91FC910288F389E02D20E030E071
:1054300000E010E009951F910F9108958F92AF92AF
:10544000CF92EF92FF920F931F93DF93CF93CDB73D
:10545000DEB7FC011382128288EE93E0A0E0B0E098
:1054600084839583A683B78385E595E091838083C4
:105470005587448737872687118B008BF38AE28A0A
:10548000C48AA58A868A70E0CB0123E0880F991F21
:105490002A95E1F79C012557384F308F278B8D5681
:1054A000984F928F818F81E090E002C0880F991F02
:1054B0006A95E2F720919B07282B20939B07CF0149
:1054C00040E051EE60E070E00E940E2ACF91DF9143
:1054D0001F910F91FF90EF90CF90AF908F90089514
:1054E000FC01838D882319F42FEF3FEF0DC007884F
:1054F000F08DE02D2081318182819381281B390B31
:105500008481958128233923C9010895FC01838D65
:10551000882319F42FEF3FEF11C0018CF28DE02D9D
:105520002081318182819381281B390B2095309510
:1055300084819581282339232F5F3F4FC901089526
:10554000FC01838D882361F0A789B08D2D913C915A
:10555000119712968D919C9113972817390721F472
:105560004FEF5FEFCA01089512968D919C911397AA
:105570001696ED91FC911797E80FF91F408112964E
:105580008D919C911397019614962D913C911597AE
:105590008223932313969C938E93129750E0E2CF2D
:1055A000FC01838D882351F00788F08DE02D208148
:1055B0003181828193812817390721F42FEF3FEF42
:1055C000C9010895828193810680F781E02DE80F5B
:1055D000F91F8081282F30E0F3CFDC015796ED9141
:1055E000FC91589782819381918380835996ED91A4
:1055F000FC915A9780819181938382830895DC0185
:105600005B968C915B978823A9F15996ED91FC915B
:105610005A97208131812F5F3F4F848195812823C4
:1056200039235C968C915C97882329F08281938141
:1056300028173907F9F08281938128173907D9F3A0
:10564000808191810680F781E02DE80FF91F60834A
:105650005996ED91FC915A97318320835296ED91A2
:10566000FC915397808156969C91892B808321E0F1
:1056700030E002C020E030E0C9010895CF93DF930D
:10568000EC011B821A828A819B81998388831D8207
:105690001C828E819F81009721F00E945E311F82C3
:1056A0001E82DF91CF9108950F931F938C01DC012F
:1056B0005296ED91FC915397208156968C91569776
:1056C00055969C915597892B809582238083579678
:1056D0008D919C9158970E943E2BF801818D928D5F
:1056E0000E943E2BD8015B961C921F910F9108954A
:1056F0000F931F93CF93DF938C01FC0113821282CF
:10570000828193819183808341E0A1E0B0E001C078
:105710004F5FFD01042E02C0EE0FFF1F0A94E2F757
:105720009B0182E06130780710F020E032E0E21760
:10573000F30770F3C1E0D0E002C0CC0FDD1F4A9543
:10574000E2F72197F801268137812115310541F0D3
:10575000848195818C179D0789F0C9010E945E3173
:10576000F801D583C483CE0101960E94C1309C010B
:10577000F8019783868380E0232B09F081E0DF9195
:10578000CF911F910F910895AF92BF92CF92DF9268
:10579000EF92FF920F931F93CF93DF937C015A01F7
:1057A0006B01E901DC015B968C915B978823F1F03A
:1057B0002115310539F45796ED91FC915897C48124
:1057C000D58121960115110549F4D7015996ED911E
:1057D000FC915A97048115810F5F1F4FD701ED91FE
:1057E000FC910088F189E02DC7010995F7018789AF
:1057F000908D209711F4C0E8D0E0BE010E94782B74
:10580000882381F0D70159968D919C915A97011563
:10581000110511F400E110E0B8010E94782B8823F3
:1058200009F04DC0D701ED91FC910088F189E02D80
:10583000C701099567C0D7015096ED91FC9151972A
:10584000B0E0AB16B1EEBB06B0E0CB06B0E0DB06D5
:1058500009F454C081E090E0D70154960C9002C046
:10586000880F991F0A94E2F7808360E079E08DE366
:1058700090E0A60195010E94C13721503040404080
:105880005040CA01B90122E030E040E050E00E94FF
:10589000C137D7011C96ED91FC911D9730831E9660
:1058A000ED91FC911F972083D7015296ED91FC91C9
:1058B0005397808155969C91892B808323C0D70173
:1058C0005996ED91FC915A971382128282819381AD
:1058D000918380835796ED91FC91589713821282A1
:1058E000828193819183808381E05B968C931A14EB
:1058F0001B041C041D040CF49ECFD6CF108220E1A3
:1059000030E0C7CFDF91CF911F910F91FF90EF90C3
:10591000DF90CF90BF90AF9008952F923F924F921B
:105920005F926F927F928F929F92AF92BF92CF922F
:10593000DF92EF92FF920F931F93DF93CF93CDB738
:10594000DEB764970FB6F894DEBF0FBECDBF3C0143
:10595000688B5A8B498B69011C01AE014F5F5F4F09
:105960005C8B4B8BE989FA89488940FD659140FF42
:105970006191FA8BE98B662309F4D7C3653249F448
:1059800040FD859140FF8191FA8BE98B8532B1F41E
:105990000CC06A3051F4D301ED91FC910190F0817B
:1059A000E02DC1016DE009956AE0D301ED91FC9114
:1059B0000190F081E02DC1010995D4CF982F10E01E
:1059C000882499241032B0F49B3269F09C3228F478
:1059D000903251F0933271F40BC09D3239F0903314
:1059E00049F4116028C01260146025C0186023C0FB
:1059F000106121C017FD2BC0892F80538A3078F4A5
:105A000016FF06C0BAE09B9E902C1124980E13C07E
:105A1000EAE08E9E802C1124880E10620CC09E320B
:105A200021F416FD82C3106406C09C3611F4106880
:105A300002C0983661F4E989FA89488940FD959158
:105A400040FF9191FA8BE98B992309F0BBCF892F05
:105A50008554833020F4812F8061905E07C0892FA8
:105A60008556833008F0E6C1812F8F7E86FD02C007
:105A700076E0972E6FE3F62EF822953619F450E46F
:105A8000F52A07C0963619F480E8F82A02C091106A
:105A90009A94F7FE0BC09BE3991520F427E05CE392
:105AA000B52E0DC0B92CB39427E009C0A7E0A91505
:105AB00020F447E0942E27E001C0292DBB24F601F5
:105AC0003496FD87EC87D6016D917D918D919C91E7
:105AD000AE014F5F5F4F0B2D0E949B016C0109814E
